{
  "transactions": [
    {
      "hash": "0x8400f8b4d8b6506586603d5d585ec2fe9677df41f409500736918b4b02857dc7",
      "transactionType": "CALL",
      "contractName": null,
      "contractAddress": "0x789927bde67645449cc0aca3bc78a67cf605c610",
      "function": "approve(address,uint256)",
      "arguments": [
        "0x7428A04f55081baaE4191eA909277CFcEA31cb28",
        "1000000000"
      ],
      "transaction": {
        "from": "0x15e60b363b5ab5e47624bc7d62b6d86afe5af543",
        "to": "0x789927bde67645449cc0aca3bc78a67cf605c610",
        "gas": "0x10db0",
        "value": "0x0",
        "input": "0x095ea7b30000000000000000000000007428a04f55081baae4191ea909277cfcea31cb28000000000000000000000000000000000000000000000000000000003b9aca00",
        "nonce": "0x1c",
        "chainId": "0x279f"
      },
      "additionalContracts": [],
      "isFixedGasLimit": false
    },
    {
      "hash": "0x2d21733330294b0868fb2c164e496853406933171db72608b93ab55689fcaa81",
      "transactionType": "CALL",
      "contractName": null,
      "contractAddress": "0x7428a04f55081baae4191ea909277cfcea31cb28",
      "function": "deposit(uint256)",
      "arguments": [
        "1000000000"
      ],
      "transaction": {
        "from": "0x15e60b363b5ab5e47624bc7d62b6d86afe5af543",
        "to": "0x7428a04f55081baae4191ea909277cfcea31cb28",
        "gas": "0x15699",
        "value": "0x0",
        "input": "0xb6b55f25000000000000000000000000000000000000000000000000000000003b9aca00",
        "nonce": "0x1d",
        "chainId": "0x279f"
      },
      "additionalContracts": [],
      "isFixedGasLimit": false
    },
    {
      "hash": "0xb4ba22e3461e5c00b52f06b8daf46da819ec425b6458c52e4a01dce6dc222031",
      "transactionType": "CALL",
      "contractName": null,
      "contractAddress": "0x7428a04f55081baae4191ea909277cfcea31cb28",
      "function": "createTrade(string,uint8,uint256,uint256,uint256,uint256,uint256,uint256,uint256)",
      "arguments": [
        "ETH",
        "0",
        "200000000000",
        "180000000000",
        "190000000000",
        "210000000000",
        "220000000000",
        "1776447652",
        "500000000"
      ],
      "transaction": {
        "from": "0x15e60b363b5ab5e47624bc7d62b6d86afe5af543",
        "to": "0x7428a04f55081baae4191ea909277cfcea31cb28",
        "gas": "0x9a0e1",
        "value": "0x0",
        "input": "0x640eea5a000000000000000000000000000000000000000000000000000000000000012000000000000000000000000000000000000000000000000000000000000000000000000000000000000000000000000000000000000000000000002e90edd00000000000000000000000000000000000000000000000000000000029e8d608000000000000000000000000000000000000000000000000000000002c3ce1ec0000000000000000000000000000000000000000000000000000000030e4f9b40000000000000000000000000000000000000000000000000000000033390598000000000000000000000000000000000000000000000000000000000069e270a4000000000000000000000000000000000000000000000000000000001dcd650000000000000000000000000000000000000000000000000000000000000000034554480000000000000000000000000000000000000000000000000000000000",
        "nonce": "0x1e",
        "chainId": "0x279f"
      },
      "additionalContracts": [],
      "isFixedGasLimit": false
    }
  ],
  "receipts": [
    {
      "status": "0x1",
      "cumulativeGasUsed": "0x790022",
      "logs": [
        {
          "address": "0x789927bde67645449cc0aca3bc78a67cf605c610",
          "topics": [
            "0x8c5be1e5ebec7d5bd14f71427d1e84f3dd0314c0f7b2291e5b200ac8c7c3b925",
            "0x00000000000000000000000015e60b363b5ab5e47624bc7d62b6d86afe5af543",
            "0x0000000000000000000000007428a04f55081baae4191ea909277cfcea31cb28"
          ],
          "data": "0x000000000000000000000000000000000000000000000000000000003b9aca00",
          "blockHash": "0x38ec9e8823d9066646de9aa2a70fadb1c0f6d47d1c1e670d4d8fd5c97ccd30b4",
          "blockNumber": "0x18db26f",
          "blockTimestamp": "0x69e262a3",
          "transactionHash": "0x8400f8b4d8b6506586603d5d585ec2fe9677df41f409500736918b4b02857dc7",
          "transactionIndex": "0x6",
          "logIndex": "0xc7",
          "removed": false
        }
      ],
      "logsBloom": "0x00000000000000000000800000000000000000004000000000000000000000000000000000000000000000000000000000000000000000000000000000200000000000000000000000000000000000000000000000000000000000000000000000000000000000000000000200000000000000000000000000000000000000000000000000000000000000000040000040000000000000000000000000000000020000000000000000000000000000000000200000000000000000000000000000000000000000000000000000000000000000000001000000000000000000000010080000000000000000000000000000000000000000000000000000000000",
      "type": "0x2",
      "transactionHash": "0x8400f8b4d8b6506586603d5d585ec2fe9677df41f409500736918b4b02857dc7",
      "transactionIndex": "0x6",
      "blockHash": "0x38ec9e8823d9066646de9aa2a70fadb1c0f6d47d1c1e670d4d8fd5c97ccd30b4",
      "blockNumber": "0x18db26f",
      "gasUsed": "0x10db0",
      "effectiveGasPrice": "0x17fb474600",
      "from": "0x15e60b363b5ab5e47624bc7d62b6d86afe5af543",
      "to": "0x789927bde67645449cc0aca3bc78a67cf605c610",
      "contractAddress": null
    },
    {
      "status": "0x1",
      "cumulativeGasUsed": "0x54051",
      "logs": [
        {
          "address": "0x789927bde67645449cc0aca3bc78a67cf605c610",
          "topics": [
            "0xddf252ad1be2c89b69c2b068fc378daa952ba7f163c4a11628f55a4df523b3ef",
            "0x00000000000000000000000015e60b363b5ab5e47624bc7d62b6d86afe5af543",
            "0x0000000000000000000000007428a04f55081baae4191ea909277cfcea31cb28"
          ],
          "data": "0x000000000000000000000000000000000000000000000000000000003b9aca00",
          "blockHash": "0xaa038006e8902b66efe6b8a590a113a701dc21ddb9408958e6a8fdcbcf461369",
          "blockNumber": "0x18db274",
          "blockTimestamp": "0x69e262a5",
          "transactionHash": "0x2d21733330294b0868fb2c164e496853406933171db72608b93ab55689fcaa81",
          "transactionIndex": "0x2",
          "logIndex": "0x5",
          "removed": false
        },
        {
          "address": "0x7428a04f55081baae4191ea909277cfcea31cb28",
          "topics": [
            "0x9fa0303acb2d73e4e86bf54dd3fba8208feacfb4f5a79175dc1f36b674da0dbb",
            "0x00000000000000000000000015e60b363b5ab5e47624bc7d62b6d86afe5af543"
          ],
          "data": "0x000000000000000000000000000000000000000000000000000000003b9aca00000000000000000000000000000000000000000000000000000000007a308480",
          "blockHash": "0xaa038006e8902b66efe6b8a590a113a701dc21ddb9408958e6a8fdcbcf461369",
          "blockNumber": "0x18db274",
          "blockTimestamp": "0x69e262a5",
          "transactionHash": "0x2d21733330294b0868fb2c164e496853406933171db72608b93ab55689fcaa81",
          "transactionIndex": "0x2",
          "logIndex": "0x6",
          "removed": false
        }
      ],
      "logsBloom": "0x00000000000000000000800000000000000000004000000000000000000000000000000000000000000000000000000000000000000000000000000000000000000000000000000000000008000000000000000000000000000000000000000000000000000000400000000200000000000000000000000000000010000000000000000000000000002200000040000040000000000000000000000000008000000000000000000000000000000000000000200000000000000000000000000000000002100000000000800000000000000000000001000000000000000000000000080000000000000000000000000000000000000000000000000000000000",
      "type": "0x2",
      "transactionHash": "0x2d21733330294b0868fb2c164e496853406933171db72608b93ab55689fcaa81",
      "transactionIndex": "0x2",
      "blockHash": "0xaa038006e8902b66efe6b8a590a113a701dc21ddb9408958e6a8fdcbcf461369",
      "blockNumber": "0x18db274",
      "gasUsed": "0x2ad3a",
      "effectiveGasPrice": "0x17fb474600",
      "from": "0x15e60b363b5ab5e47624bc7d62b6d86afe5af543",
      "to": "0x7428a04f55081baae4191ea909277cfcea31cb28",
      "contractAddress": null
    },
    {
      "status": "0x1",
      "cumulativeGasUsed": "0xd0f91",
      "logs": [
        {
          "address": "0x7428a04f55081baae4191ea909277cfcea31cb28",
          "topics": [
            "0xb39d723e0c2f3cdb863288cfdab293335831a3f4f235d2e144806e6c0b32a27f",
            "0x0000000000000000000000000000000000000000000000000000000000000002",
            "0x00000000000000000000000015e60b363b5ab5e47624bc7d62b6d86afe5af543"
          ],
          "data": "0x000000000000000000000000000000000000000000000000000000000000014000000000000000000000000000000000000000000000000000000000000000000000000000000000000000000000000000000000000000000000002e90edd00000000000000000000000000000000000000000000000000000000029e8d608000000000000000000000000000000000000000000000000000000002c3ce1ec0000000000000000000000000000000000000000000000000000000030e4f9b4000000000000000000000000000000000000000000000000000000003339059800000000000000000000000000000000000000000000000000000000001dcd65000000000000000000000000000000000000000000000000000000000069e262a60000000000000000000000000000000000000000000000000000000069e270a400000000000000000000000000000000000000000000000000000000000000034554480000000000000000000000000000000000000000000000000000000000",
          "blockHash": "0x53d59ffeda3a1401c0d32137cc67d0ddceb28675ad4cd0f179a127a9ea4b0ad2",
          "blockNumber": "0x18db276",
          "blockTimestamp": "0x69e262a6",
          "transactionHash": "0xb4ba22e3461e5c00b52f06b8daf46da819ec425b6458c52e4a01dce6dc222031",
          "transactionIndex": "0x2",
          "logIndex": "0x5",
          "removed": false
        }
      ],
      "logsBloom": "0x04000000000000000000000000000000000000004000000000000000000000000000000000000000000000000000000000000000000000000000000000000000000000000000000000000000000000000000000000000000000000000000000000000000000000400000000000000000000000000000000000000000000000000000000000000000000000000004000000000000000000000000000000008000000000000000000000000100000000000000000000000000000000008000000000000000000000000000800100000000000000000001000000000000000000000000080000000000000000000000000000000000008000000000000000000000",
      "type": "0x2",
      "transactionHash": "0xb4ba22e3461e5c00b52f06b8daf46da819ec425b6458c52e4a01dce6dc222031",
      "transactionIndex": "0x2",
      "blockHash": "0x53d59ffeda3a1401c0d32137cc67d0ddceb28675ad4cd0f179a127a9ea4b0ad2",
      "blockNumber": "0x18db276",
      "gasUsed": "0x9a0e1",
      "effectiveGasPrice": "0x17fb474600",
      "from": "0x15e60b363b5ab5e47624bc7d62b6d86afe5af543",
      "to": "0x7428a04f55081baae4191ea909277cfcea31cb28",
      "contractAddress": null
    }
  ],
  "libraries": [],
  "pending": [],
  "returns": {},
  "timestamp": 1776444072254,
  "chain": 10143,
  "commit": "dae8bf4"
}