{
  "transactions": [
    {
      "hash": "0x8a170df1f69e49dcaf6647a9b9a442a5685f2eb960a31773dfc4f76b4e6f6d0e",
      "transactionType": "CALL",
      "contractName": null,
      "contractAddress": "0x789927bde67645449cc0aca3bc78a67cf605c610",
      "function": "approve(address,uint256)",
      "arguments": [
        "0x7428A04f55081baaE4191eA909277CFcEA31cb28",
        "1000000000"
      ],
      "transaction": {
        "from": "0x15e60b363b5ab5e47624bc7d62b6d86afe5af543",
        "to": "0x789927bde67645449cc0aca3bc78a67cf605c610",
        "gas": "0x10db0",
        "value": "0x0",
        "input": "0x095ea7b30000000000000000000000007428a04f55081baae4191ea909277cfcea31cb28000000000000000000000000000000000000000000000000000000003b9aca00",
        "nonce": "0x11",
        "chainId": "0x279f"
      },
      "additionalContracts": [],
      "isFixedGasLimit": false
    },
    {
      "hash": "0x4289f1be72022fa285c228b71fcba1647fcea69edd2c0e4310ed0abd1a794c63",
      "transactionType": "CALL",
      "contractName": null,
      "contractAddress": "0x7428a04f55081baae4191ea909277cfcea31cb28",
      "function": "deposit(uint256)",
      "arguments": [
        "1000000000"
      ],
      "transaction": {
        "from": "0x15e60b363b5ab5e47624bc7d62b6d86afe5af543",
        "to": "0x7428a04f55081baae4191ea909277cfcea31cb28",
        "gas": "0x219fb",
        "value": "0x0",
        "input": "0xb6b55f25000000000000000000000000000000000000000000000000000000003b9aca00",
        "nonce": "0x12",
        "chainId": "0x279f"
      },
      "additionalContracts": [],
      "isFixedGasLimit": false
    },
    {
      "hash": "0xb371c1bf98fbe55026608d261ece3bc7662e83d8fbb48a1a86c7d0e0ec7d537d",
      "transactionType": "CALL",
      "contractName": null,
      "contractAddress": "0x7428a04f55081baae4191ea909277cfcea31cb28",
      "function": "createTrade(string,uint8,uint256,uint256,uint256,uint256,uint256,uint256,uint256)",
      "arguments": [
        "ETH",
        "0",
        "200000000000",
        "180000000000",
        "190000000000",
        "210000000000",
        "220000000000",
        "1776446328",
        "500000000"
      ],
      "transaction": {
        "from": "0x15e60b363b5ab5e47624bc7d62b6d86afe5af543",
        "to": "0x7428a04f55081baae4191ea909277cfcea31cb28",
        "gas": "0x762b5",
        "value": "0x0",
        "input": "0x640eea5a000000000000000000000000000000000000000000000000000000000000012000000000000000000000000000000000000000000000000000000000000000000000000000000000000000000000000000000000000000000000002e90edd00000000000000000000000000000000000000000000000000000000029e8d608000000000000000000000000000000000000000000000000000000002c3ce1ec0000000000000000000000000000000000000000000000000000000030e4f9b40000000000000000000000000000000000000000000000000000000033390598000000000000000000000000000000000000000000000000000000000069e26b78000000000000000000000000000000000000000000000000000000001dcd650000000000000000000000000000000000000000000000000000000000000000034554480000000000000000000000000000000000000000000000000000000000",
        "nonce": "0x13",
        "chainId": "0x279f"
      },
      "additionalContracts": [],
      "isFixedGasLimit": false
    }
  ],
  "receipts": [
    {
      "status": "0x1",
      "cumulativeGasUsed": "0x47d09",
      "logs": [
        {
          "address": "0x789927bde67645449cc0aca3bc78a67cf605c610",
          "topics": [
            "0x8c5be1e5ebec7d5bd14f71427d1e84f3dd0314c0f7b2291e5b200ac8c7c3b925",
            "0x00000000000000000000000015e60b363b5ab5e47624bc7d62b6d86afe5af543",
            "0x0000000000000000000000007428a04f55081baae4191ea909277cfcea31cb28"
          ],
          "data": "0x000000000000000000000000000000000000000000000000000000003b9aca00",
          "blockHash": "0x6a3440e7d0e676ea652e3f78d185912ada58ee006b39c6382c02b1dc9dbbe74b",
          "blockNumber": "0x18da5a4",
          "blockTimestamp": "0x69e25d79",
          "transactionHash": "0x8a170df1f69e49dcaf6647a9b9a442a5685f2eb960a31773dfc4f76b4e6f6d0e",
          "transactionIndex": "0x2",
          "logIndex": "0x5",
          "removed": false
        }
      ],
      "logsBloom": "0x00000000000000000000800000000000000000004000000000000000000000000000000000000000000000000000000000000000000000000000000000200000000000000000000000000000000000000000000000000000000000000000000000000000000000000000000200000000000000000000000000000000000000000000000000000000000000000040000040000000000000000000000000000000020000000000000000000000000000000000200000000000000000000000000000000000000000000000000000000000000000000001000000000000000000000010080000000000000000000000000000000000000000000000000000000000",
      "type": "0x2",
      "transactionHash": "0x8a170df1f69e49dcaf6647a9b9a442a5685f2eb960a31773dfc4f76b4e6f6d0e",
      "transactionIndex": "0x2",
      "blockHash": "0x6a3440e7d0e676ea652e3f78d185912ada58ee006b39c6382c02b1dc9dbbe74b",
      "blockNumber": "0x18da5a4",
      "gasUsed": "0x10db0",
      "effectiveGasPrice": "0x17fb474601",
      "from": "0x15e60b363b5ab5e47624bc7d62b6d86afe5af543",
      "to": "0x789927bde67645449cc0aca3bc78a67cf605c610",
      "contractAddress": null
    },
    {
      "status": "0x1",
      "cumulativeGasUsed": "0x433a50",
      "logs": [
        {
          "address": "0x789927bde67645449cc0aca3bc78a67cf605c610",
          "topics": [
            "0xddf252ad1be2c89b69c2b068fc378daa952ba7f163c4a11628f55a4df523b3ef",
            "0x00000000000000000000000015e60b363b5ab5e47624bc7d62b6d86afe5af543",
            "0x0000000000000000000000007428a04f55081baae4191ea909277cfcea31cb28"
          ],
          "data": "0x000000000000000000000000000000000000000000000000000000003b9aca00",
          "blockHash": "0xfa28f07b1f3f1144ca59514162200f90ae0583f60428223a7248cc850be8f580",
          "blockNumber": "0x18da5a7",
          "blockTimestamp": "0x69e25d7a",
          "transactionHash": "0x4289f1be72022fa285c228b71fcba1647fcea69edd2c0e4310ed0abd1a794c63",
          "transactionIndex": "0x6",
          "logIndex": "0x52",
          "removed": false
        },
        {
          "address": "0x7428a04f55081baae4191ea909277cfcea31cb28",
          "topics": [
            "0x9fa0303acb2d73e4e86bf54dd3fba8208feacfb4f5a79175dc1f36b674da0dbb",
            "0x00000000000000000000000015e60b363b5ab5e47624bc7d62b6d86afe5af543"
          ],
          "data": "0x000000000000000000000000000000000000000000000000000000003b9aca00000000000000000000000000000000000000000000000000000000003b9aca00",
          "blockHash": "0xfa28f07b1f3f1144ca59514162200f90ae0583f60428223a7248cc850be8f580",
          "blockNumber": "0x18da5a7",
          "blockTimestamp": "0x69e25d7a",
          "transactionHash": "0x4289f1be72022fa285c228b71fcba1647fcea69edd2c0e4310ed0abd1a794c63",
          "transactionIndex": "0x6",
          "logIndex": "0x53",
          "removed": false
        }
      ],
      "logsBloom": "0x00000000000000000000800000000000000000004000000000000000000000000000000000000000000000000000000000000000000000000000000000000000000000000000000000000008000000000000000000000000000000000000000000000000000000400000000200000000000000000000000000000010000000000000000000000000002200000040000040000000000000000000000000008000000000000000000000000000000000000000200000000000000000000000000000000002100000000000800000000000000000000001000000000000000000000000080000000000000000000000000000000000000000000000000000000000",
      "type": "0x2",
      "transactionHash": "0x4289f1be72022fa285c228b71fcba1647fcea69edd2c0e4310ed0abd1a794c63",
      "transactionIndex": "0x6",
      "blockHash": "0xfa28f07b1f3f1144ca59514162200f90ae0583f60428223a7248cc850be8f580",
      "blockNumber": "0x18da5a7",
      "gasUsed": "0x35da8",
      "effectiveGasPrice": "0x17fb474601",
      "from": "0x15e60b363b5ab5e47624bc7d62b6d86afe5af543",
      "to": "0x7428a04f55081baae4191ea909277cfcea31cb28",
      "contractAddress": null
    },
    {
      "status": "0x1",
      "cumulativeGasUsed": "0x3ac7e9",
      "logs": [
        {
          "address": "0x7428a04f55081baae4191ea909277cfcea31cb28",
          "topics": [
            "0xb39d723e0c2f3cdb863288cfdab293335831a3f4f235d2e144806e6c0b32a27f",
            "0x0000000000000000000000000000000000000000000000000000000000000001",
            "0x00000000000000000000000015e60b363b5ab5e47624bc7d62b6d86afe5af543"
          ],
          "data": "0x000000000000000000000000000000000000000000000000000000000000014000000000000000000000000000000000000000000000000000000000000000000000000000000000000000000000000000000000000000000000002e90edd00000000000000000000000000000000000000000000000000000000029e8d608000000000000000000000000000000000000000000000000000000002c3ce1ec0000000000000000000000000000000000000000000000000000000030e4f9b4000000000000000000000000000000000000000000000000000000003339059800000000000000000000000000000000000000000000000000000000001dcd65000000000000000000000000000000000000000000000000000000000069e25d7d0000000000000000000000000000000000000000000000000000000069e26b7800000000000000000000000000000000000000000000000000000000000000034554480000000000000000000000000000000000000000000000000000000000",
          "blockHash": "0x62f7c9113c24bee196f5feaaf0959572ebe678de4d01dac4aff306174fe79e14",
          "blockNumber": "0x18da5ae",
          "blockTimestamp": "0x69e25d7d",
          "transactionHash": "0xb371c1bf98fbe55026608d261ece3bc7662e83d8fbb48a1a86c7d0e0ec7d537d",
          "transactionIndex": "0x4",
          "logIndex": "0x47",
          "removed": false
        }
      ],
      "logsBloom": "0x00000000000000000000000000000000000000004000000000000000000000000000000000000000000000000000000000000000000000000000000000040000000000000000000000000000000000000000000000040000000000000000000000000000000000400000000000000000000000000000000000000000000000000000000000000000000000000004000000000000000000000000000000008000000000000000000000000000000000000000000000000000000000008000000000000000000000000000800100000000000000000001000000000000000040000000080000000000000000000000000000000000000000000000000000000000",
      "type": "0x2",
      "transactionHash": "0xb371c1bf98fbe55026608d261ece3bc7662e83d8fbb48a1a86c7d0e0ec7d537d",
      "transactionIndex": "0x4",
      "blockHash": "0x62f7c9113c24bee196f5feaaf0959572ebe678de4d01dac4aff306174fe79e14",
      "blockNumber": "0x18da5ae",
      "gasUsed": "0x9f917",
      "effectiveGasPrice": "0x17fb474601",
      "from": "0x15e60b363b5ab5e47624bc7d62b6d86afe5af543",
      "to": "0x7428a04f55081baae4191ea909277cfcea31cb28",
      "contractAddress": null
    }
  ],
  "libraries": [],
  "pending": [],
  "returns": {},
  "timestamp": 1776442750316,
  "chain": 10143,
  "commit": null
}